:020000040800F2
:10000000000003208D1400088B14000889140008D8
:1000100089140008891400088914000800000000F1
:100020000000000000000000000000008B14000829
:100030008B140008000000008B140008AD010008BC
:10004000891400088914000889140008891400081C
:10005000891400088914000889140008891400080C
:1000600089140008891400088914000889140008FC
:1000700089140008891400088914000889140008EC
:1000800089140008891400088914000889140008DC
:1000900089140008891400088914000889140008CC
:1000A00089140008891400088914000889140008BC
:1000B00089140008891400088914000889140008AC
:1000C000891400088914000889140008891400089C
:1000D000891400088914000889140008891400088C
:1000E000891400088914000889140008891400087C
:1000F000891400088914000889140008891400086C
:10010000891400088914000889140008891400085B
:10011000891400088914000889140008891400084B
:10012000891400088914000889140008891400083B
:10013000891400088914000889140008891400082B
:10014000891400088914000889140008891400081B
:10015000891400088914000889140008891400080B
:1001600089140008891400088914000889140008FB
:1001700089140008891400088914000889140008EB
:1001800089140008891400088914000889140008DB
:1001900089140008891400088914000889140008CB
:1001A000891400088914000889140008024A136899
:1001B00001331360704700BF9C00002013B5064C4C
:1001C00001902068032301AA812100F0CDFC0028C2
:1001D000F7D002B010BD00BF24010020F8B54FF4E5
:1001E000007105464348444C444E00F037FAB0F5E0
:1001F000007018BF012020704FF480413D4800F08E
:100200002DFAB0F5804018BF012060704FF4004116
:100210003B4800F023FAB0F5004018BF0120A07061
:100220004FF40051374800F019FAB0F5005018BFEC
:100230000120E0704FF48041314800F00FFAB0F532
:10024000804018BF012020714FF400612D4800F05C
:1002500005FAB0F5006018BF012060714FF400711D
:10026000284800F0FBF9B0F5007018BF0120A0711C
:100270004FF48071234800F0F1F9B0F5807018BF99
:100280000120E07180211F4800F0E8F91E4B1F4952
:100290001F68803818BF01200022207296464FF058
:1002A000010C14F8013B16F8010B83420DD10F60CD
:1002B0000132092A01F10401F3D1BEF1000F18D077
:1002C0002868BDE8F840FFF779BF0868381AB0F52C
:1002D0007A7FEDD906F8013CB5F9000093400CFA9D
:1002E00002FE434003EA0E0343402B804FF0010E11
:1002F000DEE7F8BD00180240440000203400002072
:1003000000140240001002409C0000205C0000200D
:100310002DE9F843DFF8A880DFF8A890254D264F97
:10032000264E044600F094F9D8F80030C9F80000D1
:1003300098420ED02A7832B3C0EBC013302093FB22
:10034000F0F3A3702068FFF739FFD9F80030C8F840
:10035000003031683B6822885B1A41F28830297886
:10036000834294BF00230123002918BF0023FBB15F
:1003700012F4C06F1CD022F4C06222802068BDE855
:10038000F843FFF71BBFC31A042B0FDC0433E0DA7A
:100390000A22012393402288C8F8000013432380D7
:1003A0002068FFF70BFF3B683360D2E70922F0E7D4
:1003B000BDE8F883000000209C000020A000002081
:1003C000580000205400002070B586B000245C481E
:1003D000ADF814408DF8164000F0C0FA4FF4C0603C
:1003E00000F08BF940F2016000F087F940F2026002
:1003F00000F083F940F2046000F07FF940F20560FC
:1004000000F07BF940F2066000F077F940F2876077
:1004100000F073F940F28F6001F088F8042001F0D9
:100420008BF801F09AF801F091F821464548464DC5
:10043000464E4FF40073012200F013F92146414863
:100440004FF48043012200F00CF9214640484FF45C
:100450000043012200F005F921463E484FF40053C5
:10046000012200F0FEF8214639484FF48043012272
:1004700000F0F7F8214637484FF40063012200F0FE
:10048000F0F8214633484FF40073012200F0E9F8F8
:10049000214630484FF48073012200F0E2F82146F3
:1004A0002C488023012200F0DCF801232246194663
:1004B000294800F0D6F800F089F84FF4C0532246DE
:1004C0002648022100F0CDF824484FF4C0520A21FA
:1004D00000F0E7F880230293214B01930323214A84
:1004E000214900932148224B00F0F2FA214928606B
:1004F00000F07BFD346804F59C5408343368A34253
:1005000013D3144C1C4E4FF48071204600F0A6F813
:10051000B0F5807F0DD1286800F002FB05A8FFF739
:100520005DFE05A8FFF7F4FEF5E7286800F0F8FA8D
:10053000E4E700232868337000F0F2FAE3E700BF35
:10054000081E000800180240240100209C00002022
:10055000001402400010024000040240000002406B
:10056000A40000207C1D0008891D0008401E000812
:1005700004000020A505000800000020087881285C
:100580000CD14878062809D14988B1F5085F05D112
:100590000349116028221A8001207047002070470B
:1005A000C41D000813B500230093032240238121BA
:1005B000044600F0B9FA044B7F220121204602B024
:1005C000BDE8104000F056BE7D05000810B540F6AD
:1005D000010000F092F81C481C4C5F2100F03AFA30
:1005E0001948032100F06BFA17480122002100F09E
:1005F00035FA02220121144800F030FA124800F0C6
:100600001FFA114800F021FA4FF4C06000F075F8AD
:10061000402320460122022100F023F8402202213B
:10062000204600F03EF84FF4C06000F066F8204627
:1006300001220221802300F014F820468022BDE828
:100640001040022100F02DB80004004000000240DC
:10065000014800F001BA00BF0004004000690840F2
:1006600070472DE9F0410568C46800264FF0030E7D
:1006700043FA06F7FF070DD577000EFA07FC01FADB
:1006800007F825EA0C0524EA0C0402FA07F748EA01
:1006900005053C430136102EEAD10560C460BDE873
:1006A000F081F0B5076A466A00234FF00F0C42FA5A
:1006B00003F4E50707D59D000CFA05F427EA0407C3
:1006C00001FA05F52F430133082BF0D100234FF039
:1006D0000F0C03F1080442FA04F4E40707D59C0068
:1006E0000CFA04F526EA050601FA04F42643013360
:1006F000082BEED107624662F0BD430903F1804347
:1007000003F50E3300F01F001968012202FA00F011
:10071000084318607047000006282BD8DFE800F077
:10072000041E240A10161A00134BD3F80008C0F355
:1007300040607047104BD3F80008C0F3404070474A
:100740000D4BD3F80008C0F3400070470A4BD3F8B4
:100750007008F8E7084BD3F87408F4E7064BD3F8B1
:100760000008C0F340707047034BD3F80008C0F393
:10077000C0607047002070470030024008B5024654
:100780001046FFF7C9FF0028FAD008BD06280CD88C
:10079000DFE800F004282E0C12182000174AD2F8C7
:1007A000003843F08073C2F800387047134AD2F81B
:1007B000003843F48033F6E7104AD2F8003843F0AB
:1007C0000103F0E70D4AD2F8703843F00103C2F894
:1007D00070387047094AD2F8743843F00103C2F800
:1007E00074387047054AD2F8003843F08053DAE78E
:1007F000024AD2F8003843F08063D4E70030024068
:1008000006280CD8DFE800F004282E0C121820006F
:10081000174AD2F8003823F08073C2F800387047C6
:10082000134AD2F8003823F48033F6E7104AD2F89E
:10083000003823F00103F0E70D4AD2F8703823F0B6
:100840000103C2F870387047094AD2F8743823F0AF
:100850000103C2F874387047054AD2F8003823F013
:100860008053DAE7024AD2F8003823F08063D4E7F5
:1008700000300240044AD2F8083823F0030318433A
:10088000C2F80808704700BF00300240044AD2F89E
:10089000083823F4604343EA4030C2F80808704740
:1008A00000300240044AD2F8083823F4E05343EA07
:1008B0008020C2F80808704700300240044AD2F88D
:1008C000083823F0F00343EA0010C2F80808704724
:1008D0000030024010B547F6C07404EA811100F000
:1008E0003F001B0603F0706301431943029B540849
:1008F000022B04F1FF344FEA044438BF022304F40E
:1009000040341B0703F0E04321431943014BC3F874
:10091000041810BD0030024010B5029C022C38BFF4
:10092000022424071B0603F0706304F0E04452081D
:100930001C4300F03F0047F6C073013A03EA8111FF
:10094000044312040C4302F44032034B144344F4B6
:100950008004C3F8044810BD0030024037B5044697
:100960000420FFF713FFFFF709FF0020FFF782FFC6
:10097000E379012B04D10320FFF708FFFFF7FEFE08
:1009800040F61C00FFF7B9FEE07B00F021FE207B63
:10099000FFF794FF607BFFF785FFA07BFFF776FFF3
:1009A0000020FFF72DFFE379A5792279618820786F
:1009B0000095012B63792FD1FFF7AEFF0020FFF7E1
:1009C000E5FEFFF7DBFEA3685A0528D500F0D8FD49
:1009D000A3689B0526D500F0E7FDA06800F0C4FDE4
:1009E0000220FFF747FF124AD2F80838C3F3810309
:1009F000022BF9D10F4B22691A600F4B62691A6002
:100A00000E4BA2691A60E379012B0ED1042003B0CA
:100A1000BDE83040FFF7F4BEFFF75CFFCEE700F023
:100A2000B9FDD5E700F0CAFDD7E703B030BD00BF80
:100A300000300240280000202C0000203000002060
:100A4000036843F0100303607047036843F0010339
:100A500003607047C1627047406A704701F0FD0350
:100A6000012B02F0030204D1531E012B98BF82F028
:100A7000030203291AD8DFE801F0020A121A836977
:100A800023F00303836183691A438261704783699A
:100A900023F440738361836943EA0222F5E7C36963
:100AA00023F00303C361C3691A43C2617047C3697A
:100AB00023F44073C361C36943EA0222F5E7836804
:100AC00023F0070383608368194381607047000047
:100AD0002DE9F0411E4603680546884617469847AB
:100AE000069BC360079B0361BDF820308382094BDE
:100AF0000367094BC366094B83660023C0E900877F
:100B0000C0E93233C0E93433C0F8DC508660BDE858
:100B1000F08100BFA1120008011300088313000830
:100B2000D0F8DC305B6A184710B4D0F8DC40A46819
:100B3000A4465DF8044B604713B503680021C182E9
:100B40000446DB7900910A46FFF7EEFFD4F8DC306B
:100B500000215B6820469847E3691BB102B0BDE8FD
:100B60001040184702B010BD10B4D0F8DC40E46962
:100B7000A4465DF8044B604710B4D0F8DC40246A0A
:100B8000A4465DF8044B6047D0F8DC301B69184779
:100B9000D0F8DC309B691847D0F8DC305B69184727
:100BA00008B50B786BB949887F290BD8D0F8DC30B1
:100BB000C9B2817593F830200AB15B689847012368
:100BC00000E00023184608BDF8B50D4649880446E4
:100BD00079B103680D26587C0023984201D8002083
:100BE000F8BD626806FB032252798A4203D00133C2
:100BF000F3E74FF0FF330133DBB2E3754BB9D4F8C1
:100C0000DC302046DB689847D4F8C830ABB9012007
:100C1000E6E70D226FF00C0112FB03126368134428
:100C20000022104619799142E9D9D3F8091016012A
:100C3000715801B108700132F4E70023A364236501
:100C4000A365236604F1C80604F1D80756F8043BEF
:100C500013B1698820469847B742F7D1D7E719887A
:100C6000012984BF01211980C37D11682BB142681D
:100C70000D2000FB032313F8083C0B700120704784
:100C800070B5C27D0D241D466FF00C0314FB0233BA
:100C900044688A881C442379934219D9D4F80940BE
:100CA0004B88160104EB021212799A4210D9A2590C
:100CB00052B11370D0F8D83013B14A888988984758
:100CC00000232B80012070BD002BF3D01046FAE7E3
:100CD0000020F8E770B5C67D40686FF00C050D2464
:100CE00014FB065420448D880479A5420CD20124BB
:100CF0001C808B88D0F809001B011B5803B11B789E
:100D000012680120137070BD0020FCE719880229C9
:100D100084BF02211980116800230B701268012022
:100D20005370704710B514461A88022A84BF0222F5
:100D30001A808988C9B2FFF72BFF2368003818BFD3
:100D400001201870236800225A70012010BD08B5D8
:100D500089880122C9B2FFF717FF012008BD08B535
:100D600089880022C9B2FFF70FFF012008BD2DE9D5
:100D7000F04F4D881F462B0A022B89B0144611D024
:100D8000032B00F0ED80012B40F0218102682260EE
:100D9000127839888A4228BF0A463A80012009B071
:100DA000BDE8F08FEDB205EB45080369D0F804907B
:100DB000136005EB88083C8819F808500293A54297
:100DC00009EB080328BF25461946029803932A46D3
:100DD00000F0B8FE029B19F80880641B5E19A4B2EB
:100DE00000230193039B1A79BDF804309A4204D87A
:100DF000029BA3F802803D80D0E7019B019A1B0172
:100E00000593039BD3F8093003EB0213D3F808A032
:100E1000BAF1000F14D09AF80090A14528BFA1465E
:100E200030464A46514600F08DFE9AF80030A4EB59
:100E300009044D4498444E44A4B2ADB21FFA88F858
:100E400000230493039B059AD3F809301344BDF89B
:100E500010201979914202D8019B0133C1E7049A0D
:100E6000D3F80CA0152101FB02F90AEB09031AF8CB
:100E700009B00093A34528BFA346194630465A46F9
:100E800000F060FE1AF809309844009BD3F80D106A
:100E9000A4EB0B045D445E44A4B2ADB21FFA88F823
:100EA000B1B1D3F811A0A245A8BFA2461FFA8AF992
:100EB00030464A4600F046FE009BD3F81130A4EBC2
:100EC00009044D4498444E44A4B2ADB21FFA88F8C8
:100ED0004FF00009009B1A791FFA89F39A4202D851
:100EE000049B0133ADE7009BC9EB091BD3F8093024
:100EF000079313F80B2003EB0B0AA24228BF2246EC
:100F000051463046069200F01DFE079B069A13F8E4
:100F10000B30DAF80710A41A154498441644A4B20A
:100F2000ADB21FFA88F8C1B1DAF80B20A242A8BF0F
:100F300022461FFA82FB5A463046CDF818B000F020
:100F400001FEDAF80B30069AA4EB0B045D449844DA
:100F50001644A4B2ADB21FFA88F809F10109B9E745
:100F600015F0FF0506690DD10923B3700423F37052
:100F700033703B88042B28BF04233B80032373700A
:100F800026600BE78368013D0BB3C268AA421EDDF1
:100F9000898840F20942914219D153F825502846D8
:100FA00000F06EFE01304000C0B230703B889842C5
:100FB00028BF1846388000233A885208013A9A42DE
:100FC000DCDD06EB4302E95C51800133F4E70020ED
:100FD000E5E61988022984BF0221198011680023DF
:100FE0000B70126801205370704710B5002200F199
:100FF000C80454F8043B3BB18B4208D00132042AA8
:10100000F7D14FF0FF3010BD323240F822100020EF
:10101000F9E7000010B44C78092C13D8DFE804F08D
:101020000E12121212100C120A05084CA4465DF89A
:10103000044B6047064CF9E7064CF7E7064CF5E72A
:10104000064CF3E700205DF8044B7047C90B00081D
:101050005F0C00086F0D00080D0D0008A10B0008C3
:1010600010B44C780A2C07D00B2C07D044B9064C8E
:10107000A4465DF8044B6047044CF9E7044CF7E7DD
:1010800000205DF8044B7047D30F0008D50C000812
:10109000810C000810B44C78012C04D0032C08D02B
:1010A0001CB9094C09E04C885CB100205DF8044B88
:1010B00070474C88002CF8D1044CA4465DF8044BD2
:1010C0006047034CF9E700BF250D00084F0D0008ED
:1010D0005F0D000810B40C7814F0600F12D104F00A
:1010E0001F04012C06D0022C08D05CB95DF8044B1B
:1010F000FFF790BF5DF8044BFFF7B2BF5DF8044BFC
:10110000FFF7C8BF00205DF8044B704710B50368B7
:10111000826BD979838F994204460FD20B46002106
:10112000FFF722FD022384F82C302368A26BD979C3
:10113000A38F0A445B1AA263A38710BD0021FFF7A7
:1011400013FD94F84430002B14BF0223032384F8CA
:101150002C30002384F84430A387A363EDE72DE906
:10116000F04100F1380286B00446054600F120083F
:1011700000F13C0300F14007AE6C2EB9204606B0EA
:10118000BDE8F041FFF7A6BF087895F84DE095F867
:101190004CC000EA0E00844503D008354545EBD12C
:1011A000ECE700972046CDE904230391B0470128DE
:1011B000DDE90312059BF0D806B0BDE8F08110B55B
:1011C000012204460021FFF7DFFC002384F82C30C5
:1011D00010BD70B50368828FC48EDB79816BA41A51
:1011E0009C42A8BF1C46A6B20A44334600210546CD
:1011F000FFF7C2FC864205D02846FFF7E0FF4FF01C
:10120000FF3070BDAB8F1E44AE87A0B2F9E738B592
:10121000036983638B79CA7943EA0223838704468F
:101220000D46FFF79CFF00B3EB88ABB1A28F21689E
:101230009342C9790ED932B1B2FBF1F301FB13220B
:10124000B2FA82F2520984F844202046BDE83840C0
:10125000FFF75CBF0022F6E71A4619462046FFF763
:1012600083FC042384F82C3038BD2046BDE8384088
:10127000FFF7A5BF70B5002400F1480656F83450BA
:101280002DB10134042CF9D14FF0FF3070BD00EBCB
:10129000C404284684F84C1084F84D20A364F5E774
:1012A00070B50446002501220564294600F1300688
:1012B000FFF772FCE28E2AB931462046BDE8704045
:1012C000FFF7A5BF94F93030002BF5DBA38A9342DA
:1012D00004D22046BDE87040FFF771BF2369A363C5
:1012E0002368A587DB79934234BF0523062384F85E
:1012F0002C302A4629462046BDE87040FFF74CBCFA
:1013000010B590F82C30062B044612D0072B27D0AE
:10131000052B21D1FFF75DFF002809DBA28FE38EAB
:101320009B1A2268D279934202DC062384F82C307F
:1013300010BDFFF74EFF0028FADB04F13001204614
:10134000FFF70DFF38B100231A4619462046FFF774
:101350000BFC0423EAE72046BDE81040FFF72FBF4F
:1013600000231A461946FFF707FC002384F82C30A7
:10137000236C1BB104F130012046984700232364FD
:10138000D6E710B590F82C30032B044607D0042B79
:101390000ED0022B23D1BDE81040FFF7B7BE0723C4
:1013A00080F82C300022BDE810401146FFF7F4BB56
:1013B000036C13B100F13001984794F8303053B901
:1013C00094F83130052B06D1618ED4F8DC30C9B2E7
:1013D0005B6820469847002384F82C3010BDBDE898
:1013E0001040FFF7ECBE000008B540F28760FFF741
:1013F00084F94FF0A043DA6842F04002DA601A69DB
:10140000002AFCDA1A6942F001021A614FF0A04387
:101410001A69D207FCD4DA6B1948B2F5005F9A6BEF
:101420002CBF42F4041242F410229A634FF0A043FE
:10143000D3F8042822F00202C3F80428DA6842F044
:10144000804242F47052DA6002225A61D3F80028D6
:1014500042F00302C3F800280022C3F8002E8022C5
:101460005A62A0F8E0209A6842F001029A60054AA8
:101470009A610F22C3F81C280122C3F8102808BD66
:101480002801002010280480FEE7704738B51D4A67
:101490001D4B1E498B4220D31D4A0021934221D36C
:1014A0004FF0E0231B4CD3F8142D1B4D42F4007277
:1014B000C3F8142DD3F8882D42F47002C3F8882D98
:1014C000AC4212D3154C164DAC4212D3FEF77CFF42
:1014D000144C154DAC4210D338BD52F8040B43F8F0
:1014E000040BD7E743F8041BD8E754F8043B9847AC
:1014F000E6E754F8043B9847E6E754F8043B98477E
:10150000E8E700BF741E000800000020340000203F
:1015100024020020741E0008741E0008741E0008B7
:10152000741E0008741E0008741E00084FF0E023AB
:1015300020F07F40586170474FF0E02200F0040037
:10154000136923F004030343136170474FF0E02253
:10155000136943F00203136170474FF0E0221369EF
:1015600043F0010313617047044AD2F8003C23F0B2
:101570000F031843C2F8000C704700BF0030024050
:10158000034AD2F8003C43F48063C2F8003C704741
:1015900000300240034AD2F8003C23F48063C2F8D2
:1015A000003C704700300240034AD2F8003C43F44C
:1015B0000073C2F8003C704700300240034AD2F882
:1015C000003C23F40073C2F8003C70470030024036
:1015D000044A1368800323F4404380B21843106028
:1015E000704700BF00700040D0F8DC30DA6AD2F8F3
:1015F000003823F4FE6343EA0111C2F80018704773
:10160000D0F8DCC02DE9F04311F07F05079FDCF82E
:101610002C6003F07F043ED13F2B31D9C6F800592E
:10162000DCF82C20C2F81049DCF82C10D1F8002985
:1016300042F00842C1F80029DCF82C2044F00054A4
:1016400044F40024C0F8E840C2F8104BDCF82C1039
:10165000D1F8002B42F00842C1F8002BBCF8322030
:10166000DCF82C109B0842EA03428A62B0F8E020C2
:1016700013449BB2A0F8E030A0F8E230BDE8F0835C
:101680001F2B03D90122C6F80029C9E70F2B8CBFF5
:1016900002220322F7E709064FEA451E4FEA82427B
:1016A0002AD5B0F8E09005F14008990806EB8806C5
:1016B00049EA0148C6F800804944A0F8E010DCF887
:1016C0002C1001F5116142EA855241F80E40DCF818
:1016D0002C4005F1480104EB411113430C6843F021
:1016E000184343F4004323430B60002FC6D00C2360
:1016F00003FB05008766C1E705F13A0106F531668F
:1017000044F4002440F8214046F80E40DCF82C4018
:1017100005F1580104EB411113430C6843F01443E5
:1017200043F4004323430B60002FA7D00C2303FB9B
:101730000500C766A2E7B0F8E230D0F8DC2010B5AB
:10174000A0F8E0304FF43263D16A58580028BEBF89
:10175000585840F080405850A3F50070D16A445862
:10176000002CB8BF445803F12003BCBF44F08044B0
:101770004450B3F5386FE7D1D36A4FF486621A61EB
:1017800010BDD0F8DC0030B5C46A11BBD4F8003904
:1017900052B143F40013C4F80039C36A5831C9B2D6
:1017A00003EB41110B6820E023F40013C4F8003967
:1017B000C26A58312023C9B213FB0122146824F4F1
:1017C00000141460C26A13FB01210B6843F08053BC
:1017D0000DE00B0616D501F07F012023483111FBE7
:1017E00003F513FB01410B681AB143F400130B60BE
:1017F00007E023F400130B60C26AAB5843F0805338
:10180000AB5030BD002AD3D0C7E7D0F8DC3011F0A0
:10181000800FDA6A14BF01F07F0158314FF02003C6
:1018200014BF4831C9B213FB01210868C0F340500E
:1018300070470B060CD44318583183F8E420D0F8D5
:10184000DC304901DB6A22B1CA5842F00062CA505A
:101850007047CA5842F08062F9E7F0B5D0F8DC6012
:10186000F06A01F07F0100F51160202414FB0100F3
:1018700005682D0318D443F400270760F06A01F1CE
:10188000480714FB07000131046844F004441D4676
:1018900004600903002D01DC1846F0BDF06A52F81F
:1018A000044B0C50043DF5E70023F5E737B5B0F8DD
:1018B000F8509D4228BF1D46014614462B46032B77
:1018C0001FDCA8086FF0030303FB005302EB80004A
:1018D000A3B1D1F8DC20B1F8F840D26A032C02F5AC
:1018E000805288BF043C126801928CBFA4B20024CD
:1018F000A1F8F8401A4601A900F024F9284603B0DF
:1019000030BDD1F8DC00C06A00F58050043B0068AF
:1019100044F8040BB1F8F8000438A1F8F800CEE759
:10192000D0F8DC30DA6A2DE9F047566916F4005534
:10193000044609D05B8E4FF400515161BDE8F04779
:10194000A0F8E030FFF7F8B800F168084FF00C0994
:101950004FF0010AD4F8DC30DB6A6F0103F608139C
:10196000DB59DB070ED509FB05F358F8033013B13B
:10197000E9B220469847D4F8DC30DB6A03F6081356
:1019800043F807A00135042DE4D1F0065ED5D4F864
:10199000DC00D0F82CC0DCF8202002F4F011B1F506
:1019A000002F02F00F0526D10C2303FB0543294627
:1019B0001B6F20469847D4F8DC10CB6A05F13A003B
:1019C00003F53162202313FB052254F82000106038
:1019D000CA6A2C4405F1580094F8E41013FB002364
:1019E00000291A6814BF4FF008414FF004410A4320
:1019F0001A60BDE8F087B1F5C02FDCD0B1F5802FBB
:101A000001D101230DE0B1F5402FF2D120230CF5D7
:101A1000116113FB051115FB03F70968090340D495
:101A20000223C2F30A12022BA4F8F82065D108237E
:101A300004F1300229462046FFF738FFB4F8F810C9
:101A40000023994263DC0023A4F8F830320508D55E
:101A5000236A03B19847D4F8DC30DB6A4FF40062A4
:101A60005A61002E08DA636A03B19847D4F8DC3073
:101A7000DB6A4FF000425A61330707D5A36A03B10E
:101A80009847D4F8DC30DB6A08225A61D4F8DC309D
:101A9000A26ADB6A002A42D09A6942F008029A617F
:101AA000A7E705F1480111FB03FE13FB01C3196809
:101AB00041F000611960C16A01F608133B44D3F894
:101AC00000C01CF0400FFAD05EF801309B0DD1F839
:101AD00010E0BEF1000FFADA9B0103F4707343F0DB
:101AE00020030B61C36A03F511630021D951C36A56
:101AF000103319688906FCD492E70C2303FB0543D5
:101B0000DB6E002B9AD029462046984796E7D4F8FA
:101B1000DC20D26A02F580520433126891E79A6998
:101B200022F00802BBE7D0F8DC30DB6AD3F80428E7
:101B300021B142F00202C3F80428704722F00202E9
:101B4000F9E70000844641EA000313F003036DD176
:101B5000403A41D351F8043B40F8043B51F8043B70
:101B600040F8043B51F8043B40F8043B51F8043B77
:101B700040F8043B51F8043B40F8043B51F8043B67
:101B800040F8043B51F8043B40F8043B51F8043B57
:101B900040F8043B51F8043B40F8043B51F8043B47
:101BA00040F8043B51F8043B40F8043B51F8043B37
:101BB00040F8043B51F8043B40F8043B51F8043B27
:101BC00040F8043B51F8043B40F8043B51F8043B17
:101BD00040F8043B403ABDD2303211D351F8043BB7
:101BE00040F8043B51F8043B40F8043B51F8043BF7
:101BF00040F8043B51F8043B40F8043B103AEDD266
:101C00000C3205D351F8043B40F8043B043AF9D2B6
:101C1000043208D0D2071CBF11F8013B00F8013B89
:101C200001D30B8803806046704700BF082A13D396
:101C30008B078DD010F003038AD0C3F10403D21AAE
:101C4000DB071CBF11F8013B00F8013B80D331F8E2
:101C5000023B20F8023B7BE7043AD9D3013A11F862
:101C6000013B00F8013BF9D20B7803704B784370CD
:101C70008B78837060467047000000000000000011
:101C800090F800F06DE9024520F007016FF0000CBC
:101C900010F0070491F820F040F049804FF0000464
:101CA0006FF00700D1E9002391F840F000F108003F
:101CB00082FA4CF2A4FA8CF283FA4CF3A2FA8CF377
:101CC0004BBBD1E9022382FA4CF200F10800A4FADE
:101CD0008CF283FA4CF3A2FA8CF3E3B9D1E9042332
:101CE00082FA4CF200F10800A4FA8CF283FA4CF369
:101CF000A2FA8CF37BB9D1E9062301F1200182FA23
:101D00004CF200F10800A4FA8CF283FA4CF3A2FA28
:101D10008CF3002BC6D0002A04BF04301A4612BA36
:101D2000B2FA82F2FDE8024500EBD2007047D1E939
:101D3000002304F00305C4F100004FEAC50514F0C8
:101D4000040F91F840F00CFA05F562EA05021CBF99
:101D500063EA050362464FF00004A9E74E616E6F27
:101D6000626C656E64657200424D5320636F6E74E1
:101D7000726F6C6C65720054455354000902000088
:101D8000010100C0329C1D00081201000200000089
:101D9000408304105700010102030100000000000D
:101DA0000100000000000000100000200705810372
:101DB00003002000000000000000000921000100D5
:101DC0000122280005010904A101A100050919014A
:101DD00029101500250175019510810205010930B2
:101DE0001581257F750895018102C0C0080050014A
:101DF00004070001020600000004000300BD010505
:101E000080DE800200BD01050800500102070001CC
:101E10000506000000050403007A030A80DE800244
:101E200000BD010508006801020800010506000068
:101E3000000504030095BA0A40A5AE02804A5D057C
:101E4000E9130008E9150008011600083717000813
:101E500083170008331800080B1800085B180008E7
:101E6000AD18000821190008271B000800000050C9
:041E700001008000ED
:101E7400010000005C1D0008681D0008771D0008B3
:101E8400090400000103000000AC1D0008BB1D0094
:101E940008090000000000000024F4000024F400FD
:041EA4000024F40022
:040000050800148D4E
:00000001FF
